{
  "contractName": "Vybe",
  "abi": [
    {
      "inputs": [
        {
          "internalType": "address",
          "name": "_VRFCoordinator",
          "type": "address"
        },
        {
          "internalType": "address",
          "name": "_LinkToken",
          "type": "address"
        },
        {
          "internalType": "bytes32",
          "name": "_keyHash",
          "type": "bytes32"
        }
      ],
      "stateMutability": "nonpayable",
      "type": "constructor"
    },
    {
      "anonymous": false,
      "inputs": [
        {
          "indexed": true,
          "internalType": "address",
          "name": "owner",
          "type": "address"
        },
        {
          "indexed": true,
          "internalType": "address",
          "name": "approved",
          "type": "address"
        },
        {
          "indexed": true,
          "internalType": "uint256",
          "name": "tokenId",
          "type": "uint256"
        }
      ],
      "name": "Approval",
      "type": "event"
    },
    {
      "anonymous": false,
      "inputs": [
        {
          "indexed": true,
          "internalType": "address",
          "name": "owner",
          "type": "address"
        },
        {
          "indexed": true,
          "internalType": "address",
          "name": "operator",
          "type": "address"
        },
        {
          "indexed": false,
          "internalType": "bool",
          "name": "approved",
          "type": "bool"
        }
      ],
      "name": "ApprovalForAll",
      "type": "event"
    },
    {
      "anonymous": false,
      "inputs": [
        {
          "indexed": true,
          "internalType": "address",
          "name": "from",
          "type": "address"
        },
        {
          "indexed": true,
          "internalType": "address",
          "name": "to",
          "type": "address"
        },
        {
          "indexed": true,
          "internalType": "uint256",
          "name": "tokenId",
          "type": "uint256"
        }
      ],
      "name": "Transfer",
      "type": "event"
    },
    {
      "inputs": [
        {
          "internalType": "address",
          "name": "to",
          "type": "address"
        },
        {
          "internalType": "uint256",
          "name": "tokenId",
          "type": "uint256"
        }
      ],
      "name": "approve",
      "outputs": [],
      "stateMutability": "nonpayable",
      "type": "function"
    },
    {
      "inputs": [
        {
          "internalType": "address",
          "name": "owner",
          "type": "address"
        }
      ],
      "name": "balanceOf",
      "outputs": [
        {
          "internalType": "uint256",
          "name": "",
          "type": "uint256"
        }
      ],
      "stateMutability": "view",
      "type": "function"
    },
    {
      "inputs": [],
      "name": "baseURI",
      "outputs": [
        {
          "internalType": "string",
          "name": "",
          "type": "string"
        }
      ],
      "stateMutability": "view",
      "type": "function"
    },
    {
      "inputs": [
        {
          "internalType": "uint256",
          "name": "tokenId",
          "type": "uint256"
        }
      ],
      "name": "getApproved",
      "outputs": [
        {
          "internalType": "address",
          "name": "",
          "type": "address"
        }
      ],
      "stateMutability": "view",
      "type": "function"
    },
    {
      "inputs": [
        {
          "internalType": "address",
          "name": "owner",
          "type": "address"
        },
        {
          "internalType": "address",
          "name": "operator",
          "type": "address"
        }
      ],
      "name": "isApprovedForAll",
      "outputs": [
        {
          "internalType": "bool",
          "name": "",
          "type": "bool"
        }
      ],
      "stateMutability": "view",
      "type": "function"
    },
    {
      "inputs": [],
      "name": "name",
      "outputs": [
        {
          "internalType": "string",
          "name": "",
          "type": "string"
        }
      ],
      "stateMutability": "view",
      "type": "function"
    },
    {
      "inputs": [
        {
          "internalType": "uint256",
          "name": "tokenId",
          "type": "uint256"
        }
      ],
      "name": "ownerOf",
      "outputs": [
        {
          "internalType": "address",
          "name": "",
          "type": "address"
        }
      ],
      "stateMutability": "view",
      "type": "function"
    },
    {
      "inputs": [],
      "name": "randomResult",
      "outputs": [
        {
          "internalType": "uint256",
          "name": "",
          "type": "uint256"
        }
      ],
      "stateMutability": "view",
      "type": "function"
    },
    {
      "inputs": [
        {
          "internalType": "bytes32",
          "name": "requestId",
          "type": "bytes32"
        },
        {
          "internalType": "uint256",
          "name": "randomness",
          "type": "uint256"
        }
      ],
      "name": "rawFulfillRandomness",
      "outputs": [],
      "stateMutability": "nonpayable",
      "type": "function"
    },
    {
      "inputs": [
        {
          "internalType": "bytes32",
          "name": "",
          "type": "bytes32"
        }
      ],
      "name": "requestIdToSender",
      "outputs": [
        {
          "internalType": "address",
          "name": "",
          "type": "address"
        }
      ],
      "stateMutability": "view",
      "type": "function"
    },
    {
      "inputs": [
        {
          "internalType": "bytes32",
          "name": "",
          "type": "bytes32"
        }
      ],
      "name": "requestIdToTokenId",
      "outputs": [
        {
          "internalType": "uint256",
          "name": "",
          "type": "uint256"
        }
      ],
      "stateMutability": "view",
      "type": "function"
    },
    {
      "inputs": [
        {
          "internalType": "bytes32",
          "name": "",
          "type": "bytes32"
        }
      ],
      "name": "requestIdToTokenURI",
      "outputs": [
        {
          "internalType": "string",
          "name": "",
          "type": "string"
        }
      ],
      "stateMutability": "view",
      "type": "function"
    },
    {
      "inputs": [
        {
          "internalType": "address",
          "name": "from",
          "type": "address"
        },
        {
          "internalType": "address",
          "name": "to",
          "type": "address"
        },
        {
          "internalType": "uint256",
          "name": "tokenId",
          "type": "uint256"
        }
      ],
      "name": "safeTransferFrom",
      "outputs": [],
      "stateMutability": "nonpayable",
      "type": "function"
    },
    {
      "inputs": [
        {
          "internalType": "address",
          "name": "from",
          "type": "address"
        },
        {
          "internalType": "address",
          "name": "to",
          "type": "address"
        },
        {
          "internalType": "uint256",
          "name": "tokenId",
          "type": "uint256"
        },
        {
          "internalType": "bytes",
          "name": "_data",
          "type": "bytes"
        }
      ],
      "name": "safeTransferFrom",
      "outputs": [],
      "stateMutability": "nonpayable",
      "type": "function"
    },
    {
      "inputs": [
        {
          "internalType": "address",
          "name": "operator",
          "type": "address"
        },
        {
          "internalType": "bool",
          "name": "approved",
          "type": "bool"
        }
      ],
      "name": "setApprovalForAll",
      "outputs": [],
      "stateMutability": "nonpayable",
      "type": "function"
    },
    {
      "inputs": [
        {
          "internalType": "bytes4",
          "name": "interfaceId",
          "type": "bytes4"
        }
      ],
      "name": "supportsInterface",
      "outputs": [
        {
          "internalType": "bool",
          "name": "",
          "type": "bool"
        }
      ],
      "stateMutability": "view",
      "type": "function"
    },
    {
      "inputs": [],
      "name": "symbol",
      "outputs": [
        {
          "internalType": "string",
          "name": "",
          "type": "string"
        }
      ],
      "stateMutability": "view",
      "type": "function"
    },
    {
      "inputs": [
        {
          "internalType": "uint256",
          "name": "index",
          "type": "uint256"
        }
      ],
      "name": "tokenByIndex",
      "outputs": [
        {
          "internalType": "uint256",
          "name": "",
          "type": "uint256"
        }
      ],
      "stateMutability": "view",
      "type": "function"
    },
    {
      "inputs": [],
      "name": "tokenCounter",
      "outputs": [
        {
          "internalType": "uint256",
          "name": "",
          "type": "uint256"
        }
      ],
      "stateMutability": "view",
      "type": "function"
    },
    {
      "inputs": [
        {
          "internalType": "uint256",
          "name": "",
          "type": "uint256"
        }
      ],
      "name": "tokenIdToCategory",
      "outputs": [
        {
          "internalType": "enum Vybe.Category",
          "name": "",
          "type": "uint8"
        }
      ],
      "stateMutability": "view",
      "type": "function"
    },
    {
      "inputs": [
        {
          "internalType": "address",
          "name": "owner",
          "type": "address"
        },
        {
          "internalType": "uint256",
          "name": "index",
          "type": "uint256"
        }
      ],
      "name": "tokenOfOwnerByIndex",
      "outputs": [
        {
          "internalType": "uint256",
          "name": "",
          "type": "uint256"
        }
      ],
      "stateMutability": "view",
      "type": "function"
    },
    {
      "inputs": [
        {
          "internalType": "uint256",
          "name": "tokenId",
          "type": "uint256"
        }
      ],
      "name": "tokenURI",
      "outputs": [
        {
          "internalType": "string",
          "name": "",
          "type": "string"
        }
      ],
      "stateMutability": "view",
      "type": "function"
    },
    {
      "inputs": [],
      "name": "totalSupply",
      "outputs": [
        {
          "internalType": "uint256",
          "name": "",
          "type": "uint256"
        }
      ],
      "stateMutability": "view",
      "type": "function"
    },
    {
      "inputs": [
        {
          "internalType": "address",
          "name": "from",
          "type": "address"
        },
        {
          "internalType": "address",
          "name": "to",
          "type": "address"
        },
        {
          "internalType": "uint256",
          "name": "tokenId",
          "type": "uint256"
        }
      ],
      "name": "transferFrom",
      "outputs": [],
      "stateMutability": "nonpayable",
      "type": "function"
    },
    {
      "inputs": [],
      "name": "vrfCoordinator",
      "outputs": [
        {
          "internalType": "address",
          "name": "",
          "type": "address"
        }
      ],
      "stateMutability": "view",
      "type": "function"
    },
    {
      "inputs": [
        {
          "internalType": "string",
          "name": "_tokenURI",
          "type": "string"
        },
        {
          "internalType": "uint256",
          "name": "_userProvidedSeed",
          "type": "uint256"
        }
      ],
      "name": "createCollectible",
      "outputs": [
        {
          "internalType": "bytes32",
          "name": "",
          "type": "bytes32"
        }
      ],
      "stateMutability": "nonpayable",
      "type": "function"
    }
  ],
  "bytecode": "0x60c06040523480156200001157600080fd5b5060405162003a8d38038062003a8d833981810160405260608110156200003757600080fd5b8101908080519060200190929190805190602001909291908051906020019092919050505082826040518060400160405280600481526020017f56594245000000000000000000000000000000000000000000000000000000008152506040518060400160405280600381526020017f5659420000000000000000000000000000000000000000000000000000000000815250620000e26301ffc9a760e01b6200022e60201b60201c565b8160069080519060200190620000fa92919062000337565b5080600790805190602001906200011392919062000337565b506200012c6380ac58cd60e01b6200022e60201b60201c565b62000144635b5e139f60e01b6200022e60201b60201c565b6200015c63780e9d6360e01b6200022e60201b60201c565b50508173ffffffffffffffffffffffffffffffffffffffff1660a08173ffffffffffffffffffffffffffffffffffffffff1660601b815250508073ffffffffffffffffffffffffffffffffffffffff1660808173ffffffffffffffffffffffffffffffffffffffff1660601b81525050505082600f60006101000a81548173ffffffffffffffffffffffffffffffffffffffff021916908373ffffffffffffffffffffffffffffffffffffffff16021790555080600c8190555067016345785d8a0000600d81905550505050620003e6565b63ffffffff60e01b817bffffffffffffffffffffffffffffffffffffffffffffffffffffffff19161415620002cb576040517f08c379a000000000000000000000000000000000000000000000000000000000815260040180806020018281038252601c8152602001807f4552433136353a20696e76616c696420696e746572666163652069640000000081525060200191505060405180910390fd5b6001600080837bffffffffffffffffffffffffffffffffffffffffffffffffffffffff19167bffffffffffffffffffffffffffffffffffffffffffffffffffffffff1916815260200190815260200160002060006101000a81548160ff02191690831515021790555050565b828054600181600116156101000203166002900490600052602060002090601f016020900481019282601f106200037a57805160ff1916838001178555620003ab565b82800160010185558215620003ab579182015b82811115620003aa5782518255916020019190600101906200038d565b5b509050620003ba9190620003be565b5090565b620003e391905b80821115620003df576000816000905550600101620003c5565b5090565b90565b60805160601c60a05160601c61367862000415600039806113ca5280611c2d525080611bf152506136786000f3fe608060405234801561001057600080fd5b506004361061018e5760003560e01c80634372441a116100de57806395d89b4111610097578063b88d4fde11610071578063b88d4fde14610a11578063c87b56dd14610b16578063d082e38114610bbd578063e985e9c514610bdb5761018e565b806395d89b41146108f4578063a22cb46514610977578063a3e56fa8146109c75761018e565b80634372441a1461068a5780634f6ccce7146107315780636352211e146107735780636c0360eb146107e157806370a082311461086457806394985ddd146108bc5761018e565b8063219c0eee1161014b5780632f745c59116101255780632f745c591461054c578063356ffdc1146105ae57806342619f66146105fe57806342842e0e1461061c5761018e565b8063219c0eee1461042e57806322881f881461049c57806323b872dd146104de5761018e565b806301ffc9a71461019357806306fdde03146101f8578063081812fc1461027b578063095ea7b3146102e957806318160ddd146103375780631f061a2914610355575b600080fd5b6101de600480360360208110156101a957600080fd5b8101908080357bffffffffffffffffffffffffffffffffffffffffffffffffffffffff19169060200190929190505050610c57565b604051808215151515815260200191505060405180910390f35b610200610cbe565b6040518080602001828103825283818151815260200191508051906020019080838360005b83811015610240578082015181840152602081019050610225565b50505050905090810190601f16801561026d5780820380516001836020036101000a031916815260200191505b509250505060405180910390f35b6102a76004803603602081101561029157600080fd5b8101908080359060200190929190505050610d60565b604051808273ffffffffffffffffffffffffffffffffffffffff1673ffffffffffffffffffffffffffffffffffffffff16815260200191505060405180910390f35b610335600480360360408110156102ff57600080fd5b81019080803573ffffffffffffffffffffffffffffffffffffffff16906020019092919080359060200190929190505050610dfb565b005b61033f610f3f565b6040518082815260200191505060405180910390f35b6104186004803603604081101561036b57600080fd5b810190808035906020019064010000000081111561038857600080fd5b82018360208201111561039a57600080fd5b803590602001918460018302840111640100000000831117156103bc57600080fd5b91908080601f016020809104026020016040519081016040528093929190818152602001838380828437600081840152601f19601f82011690508083019250505050505050919291929080359060200190929190505050610f50565b6040518082815260200191505060405180910390f35b61045a6004803603602081101561044457600080fd5b8101908080359060200190929190505050610fe5565b604051808273ffffffffffffffffffffffffffffffffffffffff1673ffffffffffffffffffffffffffffffffffffffff16815260200191505060405180910390f35b6104c8600480360360208110156104b257600080fd5b8101908080359060200190929190505050611018565b6040518082815260200191505060405180910390f35b61054a600480360360608110156104f457600080fd5b81019080803573ffffffffffffffffffffffffffffffffffffffff169060200190929190803573ffffffffffffffffffffffffffffffffffffffff16906020019092919080359060200190929190505050611030565b005b6105986004803603604081101561056257600080fd5b81019080803573ffffffffffffffffffffffffffffffffffffffff169060200190929190803590602001909291905050506110a6565b6040518082815260200191505060405180910390f35b6105da600480360360208110156105c457600080fd5b8101908080359060200190929190505050611101565b604051808260028111156105ea57fe5b60ff16815260200191505060405180910390f35b610606611121565b6040518082815260200191505060405180910390f35b6106886004803603606081101561063257600080fd5b81019080803573ffffffffffffffffffffffffffffffffffffffff169060200190929190803573ffffffffffffffffffffffffffffffffffffffff16906020019092919080359060200190929190505050611127565b005b6106b6600480360360208110156106a057600080fd5b8101908080359060200190929190505050611147565b6040518080602001828103825283818151815260200191508051906020019080838360005b838110156106f65780820151818401526020810190506106db565b50505050905090810190601f1680156107235780820380516001836020036101000a031916815260200191505b509250505060405180910390f35b61075d6004803603602081101561074757600080fd5b81019080803590602001909291905050506111f7565b6040518082815260200191505060405180910390f35b61079f6004803603602081101561078957600080fd5b810190808035906020019092919050505061121a565b604051808273ffffffffffffffffffffffffffffffffffffffff1673ffffffffffffffffffffffffffffffffffffffff16815260200191505060405180910390f35b6107e9611251565b6040518080602001828103825283818151815260200191508051906020019080838360005b8381101561082957808201518184015260208101905061080e565b50505050905090810190601f1680156108565780820380516001836020036101000a031916815260200191505b509250505060405180910390f35b6108a66004803603602081101561087a57600080fd5b81019080803573ffffffffffffffffffffffffffffffffffffffff1690602001909291905050506112f3565b6040518082815260200191505060405180910390f35b6108f2600480360360408110156108d257600080fd5b8101908080359060200190929190803590602001909291905050506113c8565b005b6108fc611497565b6040518080602001828103825283818151815260200191508051906020019080838360005b8381101561093c578082015181840152602081019050610921565b50505050905090810190601f1680156109695780820380516001836020036101000a031916815260200191505b509250505060405180910390f35b6109c56004803603604081101561098d57600080fd5b81019080803573ffffffffffffffffffffffffffffffffffffffff169060200190929190803515159060200190929190505050611539565b005b6109cf6116f1565b604051808273ffffffffffffffffffffffffffffffffffffffff1673ffffffffffffffffffffffffffffffffffffffff16815260200191505060405180910390f35b610b1460048036036080811015610a2757600080fd5b81019080803573ffffffffffffffffffffffffffffffffffffffff169060200190929190803573ffffffffffffffffffffffffffffffffffffffff1690602001909291908035906020019092919080359060200190640100000000811115610a8e57600080fd5b820183602082011115610aa057600080fd5b80359060200191846001830284011164010000000083111715610ac257600080fd5b91908080601f016020809104026020016040519081016040528093929190818152602001838380828437600081840152601f19601f820116905080830192505050505050509192919290505050611717565b005b610b4260048036036020811015610b2c57600080fd5b810190808035906020019092919050505061178f565b6040518080602001828103825283818151815260200191508051906020019080838360005b83811015610b82578082015181840152602081019050610b67565b50505050905090810190601f168015610baf5780820380516001836020036101000a031916815260200191505b509250505060405180910390f35b610bc5611a60565b6040518082815260200191505060405180910390f35b610c3d60048036036040811015610bf157600080fd5b81019080803573ffffffffffffffffffffffffffffffffffffffff169060200190929190803573ffffffffffffffffffffffffffffffffffffffff169060200190929190505050611a66565b604051808215151515815260200191505060405180910390f35b6000806000837bffffffffffffffffffffffffffffffffffffffffffffffffffffffff19167bffffffffffffffffffffffffffffffffffffffffffffffffffffffff1916815260200190815260200160002060009054906101000a900460ff169050919050565b606060068054600181600116156101000203166002900480601f016020809104026020016040519081016040528092919081815260200182805460018160011615610100020316600290048015610d565780601f10610d2b57610100808354040283529160200191610d56565b820191906000526020600020905b815481529060010190602001808311610d3957829003601f168201915b5050505050905090565b6000610d6b82611afa565b610dc0576040517f08c379a000000000000000000000000000000000000000000000000000000000815260040180806020018281038252602c815260200180613541602c913960400191505060405180910390fd5b6004600083815260200190815260200160002060009054906101000a900473ffffffffffffffffffffffffffffffffffffffff169050919050565b6000610e068261121a565b90508073ffffffffffffffffffffffffffffffffffffffff168373ffffffffffffffffffffffffffffffffffffffff161415610e8d576040517f08c379a00000000000000000000000000000000000000000000000000000000081526004018080602001828103825260218152602001806135f16021913960400191505060405180910390fd5b8073ffffffffffffffffffffffffffffffffffffffff16610eac611b17565b73ffffffffffffffffffffffffffffffffffffffff161480610edb5750610eda81610ed5611b17565b611a66565b5b610f30576040517f08c379a00000000000000000000000000000000000000000000000000000000081526004018080602001828103825260388152602001806134946038913960400191505060405180910390fd5b610f3a8383611b1f565b505050565b6000610f4b6002611bd8565b905090565b600080610f62600c54600d5485611bed565b9050336010600083815260200190815260200160002060006101000a81548173ffffffffffffffffffffffffffffffffffffffff021916908373ffffffffffffffffffffffffffffffffffffffff16021790555083601160008381526020019081526020016000209080519060200190610fdd929190613324565b505092915050565b60106020528060005260406000206000915054906101000a900473ffffffffffffffffffffffffffffffffffffffff1681565b60136020528060005260406000206000915090505481565b61104161103b611b17565b82611dfb565b611096576040517f08c379a00000000000000000000000000000000000000000000000000000000081526004018080602001828103825260318152602001806136126031913960400191505060405180910390fd5b6110a1838383611eef565b505050565b60006110f982600160008673ffffffffffffffffffffffffffffffffffffffff1673ffffffffffffffffffffffffffffffffffffffff16815260200190815260200160002061213290919063ffffffff16565b905092915050565b60126020528060005260406000206000915054906101000a900460ff1681565b600e5481565b61114283838360405180602001604052806000815250611717565b505050565b60116020528060005260406000206000915090508054600181600116156101000203166002900480601f0160208091040260200160405190810160405280929190818152602001828054600181600116156101000203166002900480156111ef5780601f106111c4576101008083540402835291602001916111ef565b820191906000526020600020905b8154815290600101906020018083116111d257829003601f168201915b505050505081565b60008061120e83600261214c90919063ffffffff16565b50905080915050919050565b600061124a826040518060600160405280602981526020016134f660299139600261217b9092919063ffffffff16565b9050919050565b606060098054600181600116156101000203166002900480601f0160208091040260200160405190810160405280929190818152602001828054600181600116156101000203166002900480156112e95780601f106112be576101008083540402835291602001916112e9565b820191906000526020600020905b8154815290600101906020018083116112cc57829003601f168201915b5050505050905090565b60008073ffffffffffffffffffffffffffffffffffffffff168273ffffffffffffffffffffffffffffffffffffffff16141561137a576040517f08c379a000000000000000000000000000000000000000000000000000000000815260040180806020018281038252602a8152602001806134cc602a913960400191505060405180910390fd5b6113c1600160008473ffffffffffffffffffffffffffffffffffffffff1673ffffffffffffffffffffffffffffffffffffffff16815260200190815260200160002061219a565b9050919050565b7f000000000000000000000000000000000000000000000000000000000000000073ffffffffffffffffffffffffffffffffffffffff163373ffffffffffffffffffffffffffffffffffffffff1614611489576040517f08c379a000000000000000000000000000000000000000000000000000000000815260040180806020018281038252601f8152602001807f4f6e6c7920565246436f6f7264696e61746f722063616e2066756c66696c6c0081525060200191505060405180910390fd5b61149382826121af565b5050565b606060078054600181600116156101000203166002900480601f01602080910402602001604051908101604052809291908181526020018280546001816001161561010002031660029004801561152f5780601f106115045761010080835404028352916020019161152f565b820191906000526020600020905b81548152906001019060200180831161151257829003601f168201915b5050505050905090565b611541611b17565b73ffffffffffffffffffffffffffffffffffffffff168273ffffffffffffffffffffffffffffffffffffffff1614156115e2576040517f08c379a00000000000000000000000000000000000000000000000000000000081526004018080602001828103825260198152602001807f4552433732313a20617070726f766520746f2063616c6c65720000000000000081525060200191505060405180910390fd5b80600560006115ef611b17565b73ffffffffffffffffffffffffffffffffffffffff1673ffffffffffffffffffffffffffffffffffffffff16815260200190815260200160002060008473ffffffffffffffffffffffffffffffffffffffff1673ffffffffffffffffffffffffffffffffffffffff16815260200190815260200160002060006101000a81548160ff0219169083151502179055508173ffffffffffffffffffffffffffffffffffffffff1661169c611b17565b73ffffffffffffffffffffffffffffffffffffffff167f17307eab39ab6107e8899845ad3d59bd9653f200f220920489ca2b5937696c3183604051808215151515815260200191505060405180910390a35050565b600f60009054906101000a900473ffffffffffffffffffffffffffffffffffffffff1681565b611728611722611b17565b83611dfb565b61177d576040517f08c379a00000000000000000000000000000000000000000000000000000000081526004018080602001828103825260318152602001806136126031913960400191505060405180910390fd5b61178984848484612308565b50505050565b606061179a82611afa565b6117ef576040517f08c379a000000000000000000000000000000000000000000000000000000000815260040180806020018281038252602f8152602001806135c2602f913960400191505060405180910390fd5b6060600860008481526020019081526020016000208054600181600116156101000203166002900480601f0160208091040260200160405190810160405280929190818152602001828054600181600116156101000203166002900480156118985780601f1061186d57610100808354040283529160200191611898565b820191906000526020600020905b81548152906001019060200180831161187b57829003601f168201915b5050505050905060606118a9611251565b90506000815114156118bf578192505050611a5b565b6000825111156119905780826040516020018083805190602001908083835b6020831061190157805182526020820191506020810190506020830392506118de565b6001836020036101000a03801982511681845116808217855250505050505090500182805190602001908083835b60208310611952578051825260208201915060208101905060208303925061192f565b6001836020036101000a0380198251168184511680821785525050505050509050019250505060405160208183030381529060405292505050611a5b565b8061199a8561237a565b6040516020018083805190602001908083835b602083106119d057805182526020820191506020810190506020830392506119ad565b6001836020036101000a03801982511681845116808217855250505050505090500182805190602001908083835b60208310611a2157805182526020820191506020810190506020830392506119fe565b6001836020036101000a03801982511681845116808217855250505050505090500192505050604051602081830303815290604052925050505b919050565b600b5481565b6000600560008473ffffffffffffffffffffffffffffffffffffffff1673ffffffffffffffffffffffffffffffffffffffff16815260200190815260200160002060008373ffffffffffffffffffffffffffffffffffffffff1673ffffffffffffffffffffffffffffffffffffffff16815260200190815260200160002060009054906101000a900460ff16905092915050565b6000611b108260026124c190919063ffffffff16565b9050919050565b600033905090565b816004600083815260200190815260200160002060006101000a81548173ffffffffffffffffffffffffffffffffffffffff021916908373ffffffffffffffffffffffffffffffffffffffff160217905550808273ffffffffffffffffffffffffffffffffffffffff16611b928361121a565b73ffffffffffffffffffffffffffffffffffffffff167f8c5be1e5ebec7d5bd14f71427d1e84f3dd0314c0f7b2291e5b200ac8c7c3b92560405160405180910390a45050565b6000611be6826000016124db565b9050919050565b60007f000000000000000000000000000000000000000000000000000000000000000073ffffffffffffffffffffffffffffffffffffffff16634000aea07f000000000000000000000000000000000000000000000000000000000000000085878660405160200180838152602001828152602001925050506040516020818303038152906040526040518463ffffffff1660e01b8152600401808473ffffffffffffffffffffffffffffffffffffffff1673ffffffffffffffffffffffffffffffffffffffff16815260200183815260200180602001828103825283818151815260200191508051906020019080838360005b83811015611cfc578082015181840152602081019050611ce1565b50505050905090810190601f168015611d295780820380516001836020036101000a031916815260200191505b50945050505050602060405180830381600087803b158015611d4a57600080fd5b505af1158015611d5e573d6000803e3d6000fd5b505050506040513d6020811015611d7457600080fd5b8101908080519060200190929190505050506000611da7858430600a60008a8152602001908152602001600020546124ec565b9050611dd06001600a60008881526020019081526020016000205461256690919063ffffffff16565b600a600087815260200190815260200160002081905550611df185826125ee565b9150509392505050565b6000611e0682611afa565b611e5b576040517f08c379a000000000000000000000000000000000000000000000000000000000815260040180806020018281038252602c815260200180613468602c913960400191505060405180910390fd5b6000611e668361121a565b90508073ffffffffffffffffffffffffffffffffffffffff168473ffffffffffffffffffffffffffffffffffffffff161480611ed557508373ffffffffffffffffffffffffffffffffffffffff16611ebd84610d60565b73ffffffffffffffffffffffffffffffffffffffff16145b80611ee65750611ee58185611a66565b5b91505092915050565b8273ffffffffffffffffffffffffffffffffffffffff16611f0f8261121a565b73ffffffffffffffffffffffffffffffffffffffff1614611f7b576040517f08c379a00000000000000000000000000000000000000000000000000000000081526004018080602001828103825260298152602001806135996029913960400191505060405180910390fd5b600073ffffffffffffffffffffffffffffffffffffffff168273ffffffffffffffffffffffffffffffffffffffff161415612001576040517f08c379a000000000000000000000000000000000000000000000000000000000815260040180806020018281038252602481526020018061341e6024913960400191505060405180910390fd5b61200c838383612627565b612017600082611b1f565b61206881600160008673ffffffffffffffffffffffffffffffffffffffff1673ffffffffffffffffffffffffffffffffffffffff16815260200190815260200160002061262c90919063ffffffff16565b506120ba81600160008573ffffffffffffffffffffffffffffffffffffffff1673ffffffffffffffffffffffffffffffffffffffff16815260200190815260200160002061264690919063ffffffff16565b506120d1818360026126609092919063ffffffff16565b50808273ffffffffffffffffffffffffffffffffffffffff168473ffffffffffffffffffffffffffffffffffffffff167fddf252ad1be2c89b69c2b068fc378daa952ba7f163c4a11628f55a4df523b3ef60405160405180910390a4505050565b60006121418360000183612695565b60001c905092915050565b60008060008061215f8660000186612718565b915091508160001c8160001c8090509350935050509250929050565b600061218e846000018460001b846127b1565b60001c90509392505050565b60006121a8826000016128a7565b9050919050565b60006010600084815260200190815260200160002060009054906101000a900473ffffffffffffffffffffffffffffffffffffffff1690506060601160008581526020019081526020016000208054600181600116156101000203166002900480601f0160208091040260200160405190810160405280929190818152602001828054600181600116156101000203166002900480156122905780601f1061226557610100808354040283529160200191612290565b820191906000526020600020905b81548152906001019060200180831161227357829003601f168201915b505050505090506000600b5490506122a833826128b8565b6122b281836128d6565b6000600385816122be57fe5b0660028111156122ca57fe5b9050806012600084815260200190815260200160002060006101000a81548160ff021916908360028111156122fb57fe5b0217905550505050505050565b612313848484611eef565b61231f84848484612960565b612374576040517f08c379a00000000000000000000000000000000000000000000000000000000081526004018080602001828103825260328152602001806133ec6032913960400191505060405180910390fd5b50505050565b606060008214156123c2576040518060400160405280600181526020017f300000000000000000000000000000000000000000000000000000000000000081525090506124bc565b600082905060005b600082146123ec578080600101915050600a82816123e457fe5b0491506123ca565b60608167ffffffffffffffff8111801561240557600080fd5b506040519080825280601f01601f1916602001820160405280156124385781602001600182028036833780820191505090505b50905060006001830390508593505b600084146124b457600a848161245957fe5b0660300160f81b8282806001900393508151811061247357fe5b60200101907effffffffffffffffffffffffffffffffffffffffffffffffffffffffffffff1916908160001a905350600a84816124ac57fe5b049350612447565b819450505050505b919050565b60006124d3836000018360001b612ba5565b905092915050565b600081600001805490509050919050565b600084848484604051602001808581526020018481526020018373ffffffffffffffffffffffffffffffffffffffff1673ffffffffffffffffffffffffffffffffffffffff1681526020018281526020019450505050506040516020818303038152906040528051906020012060001c9050949350505050565b6000808284019050838110156125e4576040517f08c379a000000000000000000000000000000000000000000000000000000000815260040180806020018281038252601b8152602001807f536166654d6174683a206164646974696f6e206f766572666c6f77000000000081525060200191505060405180910390fd5b8091505092915050565b60008282604051602001808381526020018281526020019250505060405160208183030381529060405280519060200120905092915050565b505050565b600061263e836000018360001b612bc8565b905092915050565b6000612658836000018360001b612cb0565b905092915050565b600061268c846000018460001b8473ffffffffffffffffffffffffffffffffffffffff1660001b612d20565b90509392505050565b6000818360000180549050116126f6576040517f08c379a00000000000000000000000000000000000000000000000000000000081526004018080602001828103825260228152602001806133ca6022913960400191505060405180910390fd5b82600001828154811061270557fe5b9060005260206000200154905092915050565b6000808284600001805490501161277a576040517f08c379a000000000000000000000000000000000000000000000000000000000815260040180806020018281038252602281526020018061351f6022913960400191505060405180910390fd5b600084600001848154811061278b57fe5b906000526020600020906002020190508060000154816001015492509250509250929050565b60008084600101600085815260200190815260200160002054905060008114158390612878576040517f08c379a00000000000000000000000000000000000000000000000000000000081526004018080602001828103825283818151815260200191508051906020019080838360005b8381101561283d578082015181840152602081019050612822565b50505050905090810190601f16801561286a5780820380516001836020036101000a031916815260200191505b509250505060405180910390fd5b5084600001600182038154811061288b57fe5b9060005260206000209060020201600101549150509392505050565b600081600001805490509050919050565b6128d2828260405180602001604052806000815250612dfc565b5050565b6128df82611afa565b612934576040517f08c379a000000000000000000000000000000000000000000000000000000000815260040180806020018281038252602c81526020018061356d602c913960400191505060405180910390fd5b8060086000848152602001908152602001600020908051906020019061295b929190613324565b505050565b60006129818473ffffffffffffffffffffffffffffffffffffffff16612e6d565b61298e5760019050612b9d565b6060612b2463150b7a0260e01b6129a3611b17565b888787604051602401808573ffffffffffffffffffffffffffffffffffffffff1673ffffffffffffffffffffffffffffffffffffffff1681526020018473ffffffffffffffffffffffffffffffffffffffff1673ffffffffffffffffffffffffffffffffffffffff16815260200183815260200180602001828103825283818151815260200191508051906020019080838360005b83811015612a53578082015181840152602081019050612a38565b50505050905090810190601f168015612a805780820380516001836020036101000a031916815260200191505b5095505050505050604051602081830303815290604052907bffffffffffffffffffffffffffffffffffffffffffffffffffffffff19166020820180517bffffffffffffffffffffffffffffffffffffffffffffffffffffffff83818316178352505050506040518060600160405280603281526020016133ec603291398773ffffffffffffffffffffffffffffffffffffffff16612e809092919063ffffffff16565b90506000818060200190516020811015612b3d57600080fd5b8101908080519060200190929190505050905063150b7a0260e01b7bffffffffffffffffffffffffffffffffffffffffffffffffffffffff1916817bffffffffffffffffffffffffffffffffffffffffffffffffffffffff191614925050505b949350505050565b600080836001016000848152602001908152602001600020541415905092915050565b60008083600101600084815260200190815260200160002054905060008114612ca45760006001820390506000600186600001805490500390506000866000018281548110612c1357fe5b9060005260206000200154905080876000018481548110612c3057fe5b9060005260206000200181905550600183018760010160008381526020019081526020016000208190555086600001805480612c6857fe5b60019003818190600052602060002001600090559055866001016000878152602001908152602001600020600090556001945050505050612caa565b60009150505b92915050565b6000612cbc8383612e98565b612d15578260000182908060018154018082558091505060019003906000526020600020016000909190919091505582600001805490508360010160008481526020019081526020016000208190555060019050612d1a565b600090505b92915050565b6000808460010160008581526020019081526020016000205490506000811415612dc757846000016040518060400160405280868152602001858152509080600181540180825580915050600190039060005260206000209060020201600090919091909150600082015181600001556020820151816001015550508460000180549050856001016000868152602001908152602001600020819055506001915050612df5565b82856000016001830381548110612dda57fe5b90600052602060002090600202016001018190555060009150505b9392505050565b612e068383612ebb565b612e136000848484612960565b612e68576040517f08c379a00000000000000000000000000000000000000000000000000000000081526004018080602001828103825260328152602001806133ec6032913960400191505060405180910390fd5b505050565b600080823b905060008111915050919050565b6060612e8f84846000856130af565b90509392505050565b600080836001016000848152602001908152602001600020541415905092915050565b600073ffffffffffffffffffffffffffffffffffffffff168273ffffffffffffffffffffffffffffffffffffffff161415612f5e576040517f08c379a00000000000000000000000000000000000000000000000000000000081526004018080602001828103825260208152602001807f4552433732313a206d696e7420746f20746865207a65726f206164647265737381525060200191505060405180910390fd5b612f6781611afa565b15612fda576040517f08c379a000000000000000000000000000000000000000000000000000000000815260040180806020018281038252601c8152602001807f4552433732313a20746f6b656e20616c7265616479206d696e7465640000000081525060200191505060405180910390fd5b612fe660008383612627565b61303781600160008573ffffffffffffffffffffffffffffffffffffffff1673ffffffffffffffffffffffffffffffffffffffff16815260200190815260200160002061264690919063ffffffff16565b5061304e818360026126609092919063ffffffff16565b50808273ffffffffffffffffffffffffffffffffffffffff16600073ffffffffffffffffffffffffffffffffffffffff167fddf252ad1be2c89b69c2b068fc378daa952ba7f163c4a11628f55a4df523b3ef60405160405180910390a45050565b60608247101561310a576040517f08c379a00000000000000000000000000000000000000000000000000000000081526004018080602001828103825260268152602001806134426026913960400191505060405180910390fd5b61311385612e6d565b613185576040517f08c379a000000000000000000000000000000000000000000000000000000000815260040180806020018281038252601d8152602001807f416464726573733a2063616c6c20746f206e6f6e2d636f6e747261637400000081525060200191505060405180910390fd5b600060608673ffffffffffffffffffffffffffffffffffffffff1685876040518082805190602001908083835b602083106131d557805182526020820191506020810190506020830392506131b2565b6001836020036101000a03801982511681845116808217855250505050505090500191505060006040518083038185875af1925050503d8060008114613237576040519150601f19603f3d011682016040523d82523d6000602084013e61323c565b606091505b509150915061324c828286613258565b92505050949350505050565b606083156132685782905061331d565b60008351111561327b5782518084602001fd5b816040517f08c379a00000000000000000000000000000000000000000000000000000000081526004018080602001828103825283818151815260200191508051906020019080838360005b838110156132e25780820151818401526020810190506132c7565b50505050905090810190601f16801561330f5780820380516001836020036101000a031916815260200191505b509250505060405180910390fd5b9392505050565b828054600181600116156101000203166002900490600052602060002090601f016020900481019282601f1061336557805160ff1916838001178555613393565b82800160010185558215613393579182015b82811115613392578251825591602001919060010190613377565b5b5090506133a091906133a4565b5090565b6133c691905b808211156133c25760008160009055506001016133aa565b5090565b9056fe456e756d657261626c655365743a20696e646578206f7574206f6620626f756e64734552433732313a207472616e7366657220746f206e6f6e20455243373231526563656976657220696d706c656d656e7465724552433732313a207472616e7366657220746f20746865207a65726f2061646472657373416464726573733a20696e73756666696369656e742062616c616e636520666f722063616c6c4552433732313a206f70657261746f7220717565727920666f72206e6f6e6578697374656e7420746f6b656e4552433732313a20617070726f76652063616c6c6572206973206e6f74206f776e6572206e6f7220617070726f76656420666f7220616c6c4552433732313a2062616c616e636520717565727920666f7220746865207a65726f20616464726573734552433732313a206f776e657220717565727920666f72206e6f6e6578697374656e7420746f6b656e456e756d657261626c654d61703a20696e646578206f7574206f6620626f756e64734552433732313a20617070726f76656420717565727920666f72206e6f6e6578697374656e7420746f6b656e4552433732314d657461646174613a2055524920736574206f66206e6f6e6578697374656e7420746f6b656e4552433732313a207472616e73666572206f6620746f6b656e2074686174206973206e6f74206f776e4552433732314d657461646174613a2055524920717565727920666f72206e6f6e6578697374656e7420746f6b656e4552433732313a20617070726f76616c20746f2063757272656e74206f776e65724552433732313a207472616e736665722063616c6c6572206973206e6f74206f776e6572206e6f7220617070726f766564a26469706673582212203ade8dbe613e21d2b1da3c1dbc5b952f52c2657d2b24a2e950771d503a1268a664736f6c63430006060033",
  "immutableReferences": {
    "374": [
      {
        "length": 32,
        "start": 7153
      }
    ],
    "376": [
      {
        "length": 32,
        "start": 5066
      },
      {
        "length": 32,
        "start": 7213
      }
    ]
  },
  "source": "// SPDX-License-Identifier: MIT\r\npragma solidity ^0.6.6;\r\n\r\nimport \"@openzeppelin/contracts/token/ERC721/ERC721.sol\";\r\nimport \"@chainlink/contracts/src/v0.6/VRFConsumerBase.sol\";\r\n\r\ncontract Vybe is ERC721, VRFConsumerBase {\r\n\r\n    //token counter\r\n    uint256 public tokenCounter;\r\n\r\n    //vars required for VRF\r\n    bytes32 internal keyHash;\r\n    uint256 internal fee;\r\n    uint256 public randomResult;\r\n\r\n    address public vrfCoordinator;\r\n    \r\n    enum Category {\r\n        VISIONARY,\r\n        INGENIOUS,\r\n        IMAGINATIVE\r\n    }    \r\n\r\n    mapping(bytes32 => address) public requestIdToSender;\r\n    mapping(bytes32 => string) public requestIdToTokenURI;\r\n    mapping(uint256 => Category) public tokenIdToCategory;\r\n    mapping(bytes32 => uint256) public requestIdToTokenId;\r\n\r\n    constructor(address _VRFCoordinator, address _LinkToken, bytes32 _keyHash) public\r\n    VRFConsumerBase(_VRFCoordinator, _LinkToken)\r\n    ERC721(\"VYBE\", \"VYB\") {\r\n        vrfCoordinator = _VRFCoordinator;\r\n        keyHash = _keyHash;\r\n        fee = 0.1 * 10**18; // 1 Link\r\n    }\r\n\r\n    function createCollectible(string memory _tokenURI, uint256 _userProvidedSeed)\r\n        public returns(bytes32) \r\n    {\r\n        bytes32 requestId = requestRandomness(keyHash, fee, _userProvidedSeed);\r\n        requestIdToSender[requestId] = msg.sender;\r\n        requestIdToTokenURI[requestId] = _tokenURI;\r\n    }\r\n\r\n    function fulfillRandomness(bytes32 _requestId, uint256 _randomNumber)\r\n        internal override \r\n    {\r\n        address nftOwner = requestIdToSender[_requestId];\r\n        string memory tokenURI = requestIdToTokenURI[_requestId];\r\n        uint256 newItemId = tokenCounter;\r\n        _safeMint(msg.sender, newItemId);\r\n        _setTokenURI(newItemId, tokenURI);\r\n        Category cat = Category(_randomNumber % 3);\r\n        tokenIdToCategory[newItemId] = cat;\r\n    } \r\n}",
  "sourcePath": "C:/Users/shlok/Desktop/programs/hackathons/nft-trade/nft-market/src/smart-contract/contracts/Vybe.sol",
  "compiler": {
    "name": "solc",
    "version": "0.6.6+commit.6c089d02.Emscripten.clang"
  },
  "schemaVersion": "3.3.4",
  "updatedAt": "2021-04-11T16:23:39.411Z",
  "devdoc": {
    "methods": {
      "approve(address,uint256)": {
        "details": "See {IERC721-approve}."
      },
      "balanceOf(address)": {
        "details": "See {IERC721-balanceOf}."
      },
      "baseURI()": {
        "details": "Returns the base URI set via {_setBaseURI}. This will be automatically added as a prefix in {tokenURI} to each token's URI, or to the token ID if no specific URI is set for that token ID."
      },
      "getApproved(uint256)": {
        "details": "See {IERC721-getApproved}."
      },
      "isApprovedForAll(address,address)": {
        "details": "See {IERC721-isApprovedForAll}."
      },
      "name()": {
        "details": "See {IERC721Metadata-name}."
      },
      "ownerOf(uint256)": {
        "details": "See {IERC721-ownerOf}."
      },
      "safeTransferFrom(address,address,uint256)": {
        "details": "See {IERC721-safeTransferFrom}."
      },
      "safeTransferFrom(address,address,uint256,bytes)": {
        "details": "See {IERC721-safeTransferFrom}."
      },
      "setApprovalForAll(address,bool)": {
        "details": "See {IERC721-setApprovalForAll}."
      },
      "supportsInterface(bytes4)": {
        "details": "See {IERC165-supportsInterface}.     * Time complexity O(1), guaranteed to always use less than 30 000 gas."
      },
      "symbol()": {
        "details": "See {IERC721Metadata-symbol}."
      },
      "tokenByIndex(uint256)": {
        "details": "See {IERC721Enumerable-tokenByIndex}."
      },
      "tokenOfOwnerByIndex(address,uint256)": {
        "details": "See {IERC721Enumerable-tokenOfOwnerByIndex}."
      },
      "tokenURI(uint256)": {
        "details": "See {IERC721Metadata-tokenURI}."
      },
      "totalSupply()": {
        "details": "See {IERC721Enumerable-totalSupply}."
      },
      "transferFrom(address,address,uint256)": {
        "details": "See {IERC721-transferFrom}."
      }
    }
  },
  "userdoc": {
    "methods": {}
  }
}